:020000020000FC
:200000000040003408608C140800683A0000000000000000000000000000000000000000BA
:20000800DEFFED04DFC00015D8400215D8800315D8C00415D9000515D9400615D98007156A
:20001000D9C00815000B307ADA000915DA400A15DA800B15DAC00C15DB000D15DB400E15C4
:20001800DB800F15DBC01015D9401115EBFFFF04DBC012150009313A2880004C10000326FA
:200020002000022600080FC000000706DF401215E8BFFF17E93FFF0400081D001000021E11
:20002800EBFFFF04DBC01215D9401117DF401217DFC000172801707AD8400217D880031714
:20003000D8C00417D9000517D9400617D9800717D9C00817DA000917DA400A17DA800B17F2
:20003800DAC00C17DB000D17DB400E17DB800F17DBC01017DEC01304EF80083ADEFFF90429
:20004000DFC00615DF000515DF0005040001883A0005313AE0BFFE15E0BFFE17E0BFFB15BD
:20004800E03FFD1500800044E0BFFC15E0FFFB17E0BFFC171884703A1000142600800074CC
:2000500010A78C04E0FFFD17180690FA10C5883A10C000170080007410A78C04E13FFD17C1
:20005800200890FA1105883A10800104108000171009883A183EE83A0001883A0005313A3C
:20006000E0BFFF15E0BFFF1700000706E0BFFC171085883AE0BFFC15E0BFFD1710800044CB
:20006800E0BFFD15003FE106E0BFFB15E0BFFB17103FDB1E0001883A0001883AE037883A9A
:20007000DFC00117DF000017DEC00204F800283ADEFFFB04DFC00415DF000315DF00030454
:20007800E13FFF1500BFFFC4E0BFFD15E03FFE15D0A0C31710000726D0A0C317E0FFFD170B
:20008000E1BFFE17E17FFF171809883A103EE83A00000206003DA03A0005883AE037883A23
:20008800DFC00117DF000017DEC00204F800283A06C00074DEC0001406800074D686C71490
:2000900000085EC000086700003FFF06DEFFFE04DF000115DF000104E13FFF150007883AC2
:20009800008000741084060410C000350080007410840704108000370001883AE037883ABB
:2000A000DF000017DEC00104F800283ADEFFFC04DFC00315DF000215DF000204D8000015F1
:2000A800000F883A0180007431A09304000B883A0009883A00082E4000800074108404046C
:2000B000E0BFFF15E0BFFF1700C0200410C00015E0BFFF171080010400C000C410C000154C
:2000B800003FFF06DEFFF904DFC00615DF000515DF000504E13FFC15E17FFD15E1BFFE1519
:2000C000E1FFFF15E0800217D8800015E1FFFF17E1BFFE17E17FFD17E13FFC170008494063
:2000C800E037883ADFC00117DF000017DEC00204F800283ADEFFF904DF000615DF000604D7
:2000D000E13FFE15E17FFF15E0BFFF17E0BFFA150005303AE0BFFB15E0FFFB1700BFFF84B5
:2000D8001884703A1001703AE0BFFB17E0BFFC1500C00044E0BFFA171884983A1007883AAB
:2000E000D0A0BF171884B03AD0A0BF15D0A0BF17100170FAE0BFFC17E0BFFD15E0BFFD1719
:2000E8001001703A0005883A0001883AE037883ADF000017DEC00104F800283ADEFFF9040D
:2000F000DF000615DF000604E13FFE15E17FFF15E0BFFF17E0BFFA150005303AE0BFFB15E5
:2000F800E0FFFB1700BFFF841884703A1001703AE0BFFB17E0BFFC1500C00044E0BFFA179F
:200100001884983A0084303A1007883AD0A0BF171884703AD0A0BF15D0A0BF17100170FA19
:20010800E0BFFC17E0BFFD15E0BFFD171001703A0005883A0001883AE037883ADF000017AD
:20011000DEC00104F800283ADEFFFC04DF000315DF000304E13FFE15E17FFF15000530FA42
:20011800E0BFFD1500C00044E0BFFF171884983A1007883AE0BFFD171884703A1004C03A0F
:2001200010803FCCE037883ADF000017DEC00104F800283ADEFFF504DFC00A15DF000915C7
:20012800DF000904E13FFC15E17FFD15E1BFFE15E1FFFF1500BFFA84E0BFF715E0BFFD17E6
:20013000E0BFF815E0BFF817108008081000271E0005303AE0BFFB15E0FFFB1700BFFF840F
:200138001884703A1001703AE0BFFB17E0BFFA150080007410A78C04E0FFF817180690FA76
:2001400010C5883AE0FFFE1710C000150080007410A78C04E0FFF817180690FA10C5883AC7
:2001480010800104E0FFFF1710C00015E0BFFE1710000526E0BFF817100B883AE13FFC177B
:200150000008334000000406E0BFF817100B883AE13FFC1700083BC0E0BFF715E0BFFA17EE
:20015800E0BFF915E0BFF9171001703AE0BFF717E037883ADFC00117DF000017DEC0020499
:20016000F800283ADEFFFC04DF000315DF000304E13FFD15E17FFE15E1BFFF15E0FFFE171E
:20016800E0BFFD1718800C2600000806E0BFFE1710C00104E0FFFE15E0FFFD171900010460
:20017000E13FFD1518C0001710C00015E0FFFE17E0BFFF1718BFF51E0001883AE037883A3A
:20017800DF000017DEC00104F800283ADEFFFE04DFC00115DF000015D839883A0180007424
:2001800031A6D0040140007429661A04010000742126D004000858400180007431A08C04CC
:2001880001400074296008040100007421200804000858400180007431A61A04014000740C
:2001900029660D040100007421260D04000858400008AE000008CCC00001883AE037883A5C
:20019800DFC00117DF000017DEC00204F800283ADEFFFD04DFC00215DF000115DF0001042F
:2001A0000009883A000872000001883A000875800180007431A60D040140007429660D0408
:2001A8000100007421260D040008E6C00008C0C00100007421231B0400094700D0A0C017C5
:2001B000D0E0C117D120C217200D883A180B883A1009883A000828C0E0BFFF150100004446
:2001B8000008A080E13FFF1700094840DEFFFD04DFC00215DF000115DF000104E13FFF1597
:2001C000D1600304E13FFF170008B680E037883ADFC00117DF000017DEC00204F800283AEF
:2001C800DEFFFD04DFC00215DF000115DF000104E13FFF1500091F00008000441001703ACF
:2001D0000001883AE037883ADFC00117DF000017DEC00204F800283ADEFFFE04DFC0011534
:2001D800DF000015D839883A0100007421261A0400086EC00001883AE037883ADFC00117DD
:2001E000DF000017DEC00204F800283ADEFFFA04DFC00515DF000415DF000404E13FFD1566
:2001E800E17FFE15E1BFFF15E0BFFD1710800017E0BFFC15E0BFFC1710C00A04E0BFFD1783
:2001F00010800217100F883AE1BFFF17E17FFE171809883A000884C0E037883ADFC001177B
:2001F800DF000017DEC00204F800283ADEFFFA04DFC00515DF000415DF000404E13FFD154E
:20020000E17FFE15E1BFFF15E0BFFD1710800017E0BFFC15E0BFFC1710C00A04E0BFFD176A
:2002080010800217100F883AE1BFFF17E17FFE171809883A00089380E037883ADFC0011793
:20021000DF000017DEC00204F800283ADEFFF704DF000815DF000804E13FFC15E17FFD1578
:20021800E1BFFE15E1FFFF15E0BFFC1710800017E0BFF915E0BFFD17E0BFF815E0BFFE1706
:20022000E0FFFD171885883AE0BFFA1500001206E0BFF91710800037E0BFFB15E0BFFB17D0
:2002280010A0000C10000626E0BFF81710C00044E0FFF815E0FFFB1710C00005000006063E
:20023000E0FFF817E0BFFD171880071EE0BFFF171090000C1000061EE0FFF817E0BFFA171D
:2002380018BFEB36000003060001883A000001060001883AE0FFF817E0BFFD1718800426B5
:20024000E0FFF817E0BFFD171885C83A00000606E0BFFF171090000C1000022600BFFD44B9
:200248000000010600BFFEC4E037883ADF000017DEC00104F800283ADEFFF904DF0006156E
:20025000DF000604E13FFC15E17FFD15E1BFFE15E1FFFF15E0BFFC1710800017E0BFFA1554
:20025800E0BFFE17E0FFFD171885883AE0BFFB1500000E06E0BFFA171080010410800037B1
:2002600010BFFFEC10000926E0FFFA17E0BFFD1711000044E13FFD151080000310803FCC2D
:200268001080201C10BFE00418800035E0FFFD17E0BFFB1718BFEF36E0BFFE17E037883AFD
:20027000DF000017DEC00104F800283ADEFFFE04DFC00115DF000015D839883AD0A0061793
:2002780010000326D0A00617103EE83A00000106D0A0C404E037883ADFC00117DF0000176B
:20028000DEC00204F800283ADEFFFB04DFC00415DF000315DF000304E13FFF15E0BFFF1706
:200288001000081601400304E13FFF1700097D801007883A0080007410A62F041885883A8F
:20029000000001060005883AE0BFFD15E0BFFD1710001926E0BFFD171080001710800417C8
:2002980010000626E0BFFD171080001710800417E13FFD17103EE83A000001060005883A93
:2002A000E0BFFE15E13FFF17000916C0E0BFFE171000070E00089CC01007883AE0BFFE17AD
:2002A8000085C83A1880001500BFFFC4000007060005883A0000050600089CC01007883A64
:2002B000008014441880001500BFFFC4E037883ADFC00117DF000017DEC00204F800283AA3
:2002B800DEFFFF04DF000015D839883A0001883AE037883ADF000017DEC00104F800283AF0
:2002C000DEFFFC04DF000315DF000304E13FFD15E17FFE15E1BFFF15E0BFFF17E037883A7D
:2002C800DF000017DEC00104F800283ADEFFFE04DFC00115DF000015D839883AD0A006173B
:2002D00010000326D0A00617103EE83A00000106D0A0C404E037883ADFC00117DF00001713
:2002D800DEC00204F800283ADEFFFA04DFC00515DF000415DF000404E13FFE15E17FFF15EE
:2002E000E0BFFE1710000326E0BFFE17108002171000061E0008B2C01007883A0080058424
:2002E8001880001500BFFA8400001306E0BFFE17E0FFFF17E0FFFC15E0BFFD15E0BFFD17F6
:2002F000E0FFFC1710C00115E0BFFC1710C00017E0BFFD1710C00015E0BFFC17108000178C
:2002F800E0FFFD1710C00115E0BFFC17E0FFFD1710C000150005883AE037883ADFC001172C
:20030000DF000017DEC00204F800283ADEFFFD04DFC00215DF000115DF0001040080007488
:2003080010A60C04E0BFFF1500000606E0BFFF1710800017103EE83AE0BFFF1710BFFF04FD
:20031000E0BFFF15E0FFFF170080007410A60D0418BFF62E0001883AE037883ADFC001171C
:20031800DF000017DEC00204F800283ADEFFFD04DFC00215DF000115DF0001040080007470
:2003200010A60C04E0BFFF1500000606E0BFFF1710800017103EE83AE0BFFF1710BFFF04E5
:20032800E0BFFF15E0FFFF170080007410A60D0418BFF62E0001883AE037883ADFC0011704
:20033000DF000017DEC00204F800283ADEFFFF04DF000015D839883A0001883AE037883A76
:20033800DF000017DEC00104F800283ADEFFFE04DF000115DF000104E13FFF15E0BFFF1711
:2003400010BFFE8410C0042818001A1E100690BA0080007410A349041885883A10800017A6
:200348001000683A00008D6400008D6400008D7400008D7400008D7400008D6400008D6C14
:2003500000008D7400008D6400008D6400008D7400008D6400008D6C00008D7400008D74BD
:2003580000008D6400800044000003060005883A000001060005883AE037883ADF00001763
:20036000DEC00104F800283ADEFFF804DFC00715DF000615DC000515DF000604E13FFB15E3
:20036800E17FFC15E1BFFD15E1FFFE15E1BFFE17E17FFD17E13FFC1700090100E0BFFA154B
:20037000E0BFFA17100022160400007484262F04E0BFFA17014003041009883A00097D8047
:200378008085883A10C00017E0BFFB1710C000150400007484262F04E0BFFA1701400304D4
:200380001009883A00097D808085883A1080010410C00017E0BFFB1710C00115040000742A
:2003880084262F04E0BFFA17014003041009883A00097D808085883A1080020410C000175B
:20039000E0BFFB1710C00215E13FFA17000916C00001883AE6FFFF04DFC00217DF0001174B
:20039800DC000017DEC00304F800283ADEFFFB04DFC00415DF000315DF000304E13FFD15B0
:2003A000E17FFE15E1BFFF1501C07FC401800044E17FFD1701000074212632040008D88087
:2003A80001C07FC4000D883AE17FFE170100007421262F040008D88001C07FC401800044D5
:2003B000E17FFF1701000074212635040008D8800001883AE037883ADFC00117DF00001719
:2003B800DEC00204F800283ADEFFFE04DFC00115DF000015D839883AD0A006171000032606
:2003C000D0A00617103EE83A00000106D0A0C404E037883ADFC00117DF000017DEC00204B7
:2003C800F800283ADEFFFB04DFC00415DF000315DC000215DF000304E13FFE15E0BFFE1770
:2003D0001080021710D00034E0BFFE1710C00215E03FFD15000023060400007484262F0406
:2003D800E0BFFD17014003041009883A00097D808085883A10C00017E0BFFE171080001720
:2003E0001880151E0400007484262F04E0BFFD17014003041009883A00097D808085883A3A
:2003E800108002041080001710000B0E01400304E13FFD1700097D801007883A0080007440
:2003F00010A62F041887883AE0BFFE171880022600BFFCC400000806E0BFFD17108000441B
:2003F800E0BFFD15D0A005171007883AE0BFFD1718BFD92E0005883AE6FFFF04DFC00217D7
:20040000DF000117DC000017DEC00304F800283ADEFFF604DFC00915DF000815DF00080478
:20040800E13FFD15E17FFE15E1BFFF1500BFFFC4E0BFF91500BFFB44E0BFFA15E03FFB1571
:20041000D1600304E13FFD1700092140E0BFF815E0BFF8171000051EE13FFD1700092A40C2
:20041800E0BFF81500800044E0BFFB15E0BFF81710002B26E13FF81700093AC0E0BFF915B7
:20042000E0BFF9171000030EE0BFF917E0BFFA150000250601400304E13FF91700097D80E6
:200428001007883A0080007410A62F041885883AE0BFFC15E0FFFE170090003410BFFFC4A5
:200430001886703AE0BFFC1710C00215E0BFFB171000051EE13FFC170008F240E0BFFA15CC
:20043800E0BFFA1710001016E0BFF8171080031710000826E0BFF81710800317E1FFFF17DA
:20044000E1BFFE17E17FFD17E13FFC17103EE83A000001060005883AE0BFFA15000002064C
:2004480000BFFB44E0BFFA15E0BFFA171000090EE13FF917000916C00008EE801007883AB3
:20045000E0BFFA170085C83A1880001500BFFFC400000106E0BFF917E037883ADFC00117E0
:20045800DF000017DEC00204F800283ADEFFFC04DFC00315DF000215DC000115DF0002042F
:20046000E13FFE15E0BFFE17108000D01000111E0400007484262F04E0BFFE1701400304A5
:200468001009883A00097D808085883A10800204100000150400007484262F04E0BFFE1708
:20047000014003041009883A00097D808085883A100000150001883AE6FFFF04DFC00217F4
:20047800DF000117DC000017DEC00304F800283ADEFFFF04DF000015D839883A000170FA69
:200480000001883AE037883ADF000017DEC00104F800283ADEFFFA04DFC00515DF00041541
:20048800DF000404E13FFE15E17FFF15E0BFFF1710800017E0BFFC15E13FFE1700094D40EF
:2004900010800044E0BFFD1500000D06E0BFFC1710800217E0FFFD17180D883AE17FFE170A
:200498001009883A00094A401000021EE0BFFC1700000706E0BFFC1710800017E0BFFC15DE
:2004A000E0FFFC17E0BFFF1718BFF01E0005883AE037883ADFC00117DF000017DEC00204BF
:2004A800F800283ADEFFFB04DFC00415DF000315DF000304E13FFF15D0A00117E0BFFD15FC
:2004B00000003106E0BFFD17108002171009883A00094D40E0BFFE15E0BFFD1710C00217DA
:2004B800E0BFFE1710BFFFC41885883A1080000310803FCC1080201C10BFE00410800BD85F
:2004C0001000031EE0BFFE1710BFFFC4E0BFFE15E0BFFE17E0FFFF171885883A1080000358
:2004C80010803FCC1080201C10BFE00410800BE01000081EE0BFFE17E0FFFF171885883A41
:2004D0001080000310803FCC1080201C10BFE00410000A1EE0BFFD1710800217E0FFFE17D7
:2004D800180D883AE17FFF171009883A00094A401000021EE0BFFD1700000706E0BFFD1796
:2004E00010800017E0BFFD15E0FFFD17D0A0010418BFCC1E0005883AE037883ADFC0011724
:2004E800DF000017DEC00204F800283ADEFFFA04DFC00515DF000415DC000315DF00040499
:2004F000E13FFE1500BFFA04E0BFFD15E03FFC1500001D060400007484262F04E0BFFC17F1
:2004F800014003041009883A00097D808085883A108000171000111E0400007484262F04B9
:20050000E0BFFC17014003041009883A00097D808085883AE0FFFE1710C00015D0E0051794
:20050800E0BFFC171880020EE0BFFC17D0A00515E0BFFC17E0BFFD1500000606E0BFFC171C
:2005100010800044E0BFFC15E0BFFC1710800810103FE01EE0BFFD17E6FFFF04DFC002174D
:20051800DF000117DC000017DEC00304F800283A200B883A000F883A000D883A0009883A82
:2005200000094F01DEFFFE04000B883ADC000015DFC001152021883A000964808009883AD5
:2005280000098000218D883A218008262080000328C0000310C0022610C5C83AF800283A34
:200530002100004429400044003FF7060005883AF800283A2005883A10C00007180002263E
:2005380010800044003FFC061105C83AF800283A0080007410A6CE0410C00017DEFFF904DF
:20054000DC0000151C000C17DD400515DD000415DCC00315DC800215DC400115DFC006152B
:20054800202B883A2823883A3027883A3825883A1029883A8000021E1C000D041C000C153C
:200550008080011700C007C41880110E00800034108000041000021E00BFFFC40000310600
:2005580001002304000000001021883A103FFA2610000115A080001710C00C1780C0001554
:2005600014000C1580002215A8001D2600000606A8001B26808022171000091E008000348B
:2005680010800004103FEC260100420400000000103FE926100040151000411580802215D7
:2005700081400117010000442947883A18C7883A10C7883A1CC000152148983A114040170D
:20057800290AB03A114040151C80201500C00084A8C0031E10C041171908B03A1100411568
:200580008080011710C00044108000841085883A1085883A80C0011580A1883A844000155B
:200588000005883ADFC00617DD400517DD000417DCC00317DC800217DC400117DC0000174D
:20059000DEC00704F800283ADEFFF504DD00051505000074DC800315DFC00A15DF000915D3
:20059800DDC00815DD800715DD400615DCC00415DC400215DC000115D90000152825883A01
:2005A000A526CE04A44000178CC00C178C400C04980045269C0001170090003410BFFFC44B
:2005A8009D40221785BFFFC480A1883A8421883A8421883AAC2F883A840002049C21883ABF
:2005B000B000271690000726A800041EB5BFFFC4BDFFFF04843FFF04003FF906B9002017CD
:2005B800913FFA1E9900011782000017213FFFC4B100021E9D80011500000106800000152E
:2005C000403FF2269F000117A8000526008000441592983AA9404017494A703A2800021EF8
:2005C800403EE83A00000906A90041174908703A2000041EB9400017D9000017403EE83A86
:2005D00000000206B9000017403EE83A99000117E13FCC1E89000017993FDC26003FC90650
:2005D800008000341080000410000F2699400117990000172800091E20000826890000159A
:2005E000A8000226A809883A000000009809883A000000008CC00017003FBD069823883A73
:2005E8002027883A003FBA06DFC00A17DF000917DDC00817DD800717DD400617DD000517C2
:2005F000DCC00417DC800317DC400217DC000117DEC00B04F800283A0005883A200007267A
:2005F80020C0004C2008D07A180001261145883A294B883A203FFA1EF800283AF800283A8D
:20060000DEFFFD04DF000215DF000204E13FFF150001883AE0BFFF17E0BFFE15E0BFFE170F
:2006080010000226002AF07000000106002AF0B0003FFF067665642F61746A2F61755F6783
:20061000305F7472000000007665642F61746A2F61755F67305F7472000000007665642FFA
:200618006C756E2F0000006C000000000000000000000000000000000000000000000000D8
:200620000000000000000000000000000000000000000000000000000000000000000000BA
:200628000000000000000000000000000000000000000000000000000000000000000000B2
:200630000000000000000000000000000000000000000000000000000000000000000000AA
:200638000000000000000000000000000000000000000000000000000000000000000000A2
:2006400000000000000000000000000000000000000000000000000000000000000000009A
:20064800000000000000000000000000000000000000000000000000000000000000000092
:2006500000000000000000000000000000000000000000000000000000000000000000008A
:20065800000000000000000000000000000000000000000000000000000000000000000082
:2006600000000000000000000000000000000000000000000000000000000000000000007A
:20066800000000000000000000000000000000000000000000000000000000000000000072
:2006700000000000000000000000000000000000000000000000000000000000000000006A
:20067800000000000000000000000000000000000000000000000000000000000000000062
:2006800000000000000000000000000000000000000000000000000000000000000000005A
:20068800000000000000000000000000000000000000000000000000000000000000000052
:2006900000000000000000000000000000000000000000000000000000000000000000004A
:20069800000000000000000000000000000000000000000000000000000000000000000042
:2006A00000000000000000000000000000000000000000000000000000000000000000003A
:2006A800000000000000000000000000000000000000000000000000000000000000000032
:2006B00000000000000000000000000000000000000000000000000000000000000000002A
:2006B800000000000000000000000000000000000000000000000000000000000000000022
:2006C00000000000000000000000000000000000000000000000000000000000000000001A
:2006C800000000000000000000000000000000000000000000000000000000000000000012
:2006D00000000000000000000000984800000000000000000000878C000087EC00000000A4
:2006D80000000000000000000001102800009B2800009B280000985C00000000000000004F
:2006E0000000000000008B0000000000000000000000000000009894000000000000000043
:2006E80000009894000000000000000000009894000000000000000000000000000000009A
:2006F0000000000000000000000000000000000000000000000000000000000000000000EA
:2006F8000000000000000000000000000000000000000000000000000000000000000000E2
:200700000000000000000000000000000000000000000000000000000000000000000000D9
:200708000000000000000000000000000000000000000000000000000000000000000000D1
:200710000000000000000000000000000000000000000000000000000000000000000000C9
:200718000000000000000000000000000000000000000000000000000000000000000000C1
:200720000000000000000000000000000000000000000000000000000000000000000000B9
:200728000000000000000000000000000000000000000000000000000000000000000000B1
:200730000000000000000000000000000000000000000000000000000000000000000000A9
:200738000000000000000000000000000000000000000000000000000000000000000000A1
:2007400000000000000000000000000000000000000000000000000000009AFC00009B0464
:2007480000009B0C00000000000000000000000000000000000000000000000000000000EA
:20075000000000000000000000000000000000000000000000000000000000000000000089
:20075800000000000000000000000000000000000000000000000000000000000000000081
:20076000000000000000000000000000000000000000000000000000000000000000000079
:20076800000000000000000000000000000000000000000000000000000000000000000071
:20077000000000000000000000000000000000000000000000000004000000000001000A5A
:20077800000000000002000A000000000000000000000000FFFFFFFF00009B2000009B20E3
:200780000000989400009894FFFFFFFF0000000000009A3C00009A3C000000000000000059
:20078800000000000000000000000000000000000000000000000000000000000000000051
:20079000000000000000000000000000000000000000000000000000000000000000000049
:20079800000000000000000000000000000000000000000000000000000000000000000041
:2007A000000000000000000000000000000000000000000000000000000000000000000039
:00000001FF
